{
  "_format": "hh-sol-artifact-1",
  "contractName": "Safe3",
  "sourceName": "contracts/Safe3.sol",
  "abi": [
    {
      "inputs": [
        {
          "internalType": "address",
          "name": "safePoints",
          "type": "address"
        },
        {
          "internalType": "address",
          "name": "safeContent",
          "type": "address"
        }
      ],
      "stateMutability": "nonpayable",
      "type": "constructor"
    },
    {
      "inputs": [
        {
          "internalType": "address",
          "name": "owner",
          "type": "address"
        }
      ],
      "name": "OwnableInvalidOwner",
      "type": "error"
    },
    {
      "inputs": [
        {
          "internalType": "address",
          "name": "account",
          "type": "address"
        }
      ],
      "name": "OwnableUnauthorizedAccount",
      "type": "error"
    },
    {
      "anonymous": false,
      "inputs": [
        {
          "indexed": false,
          "internalType": "uint256",
          "name": "content",
          "type": "uint256"
        },
        {
          "indexed": false,
          "internalType": "address",
          "name": "from",
          "type": "address"
        },
        {
          "indexed": false,
          "internalType": "uint256",
          "name": "points",
          "type": "uint256"
        }
      ],
      "name": "ContentTipped",
      "type": "event"
    },
    {
      "anonymous": false,
      "inputs": [
        {
          "indexed": false,
          "internalType": "uint256",
          "name": "tokenId",
          "type": "uint256"
        }
      ],
      "name": "CreatedContent",
      "type": "event"
    },
    {
      "anonymous": false,
      "inputs": [
        {
          "indexed": false,
          "internalType": "address",
          "name": "studio",
          "type": "address"
        }
      ],
      "name": "CreatedStudio",
      "type": "event"
    },
    {
      "anonymous": false,
      "inputs": [
        {
          "indexed": true,
          "internalType": "address",
          "name": "previousOwner",
          "type": "address"
        },
        {
          "indexed": true,
          "internalType": "address",
          "name": "newOwner",
          "type": "address"
        }
      ],
      "name": "OwnershipTransferred",
      "type": "event"
    },
    {
      "anonymous": false,
      "inputs": [
        {
          "indexed": false,
          "internalType": "address",
          "name": "studio",
          "type": "address"
        },
        {
          "indexed": false,
          "internalType": "uint256",
          "name": "ponits",
          "type": "uint256"
        }
      ],
      "name": "PointsClaimed",
      "type": "event"
    },
    {
      "inputs": [
        {
          "internalType": "address",
          "name": "studio",
          "type": "address"
        }
      ],
      "name": "addToBlacklist",
      "outputs": [],
      "stateMutability": "nonpayable",
      "type": "function"
    },
    {
      "inputs": [
        {
          "internalType": "uint256",
          "name": "points",
          "type": "uint256"
        }
      ],
      "name": "claim",
      "outputs": [],
      "stateMutability": "nonpayable",
      "type": "function"
    },
    {
      "inputs": [
        {
          "internalType": "address",
          "name": "studio",
          "type": "address"
        }
      ],
      "name": "getStudio",
      "outputs": [
        {
          "components": [
            {
              "internalType": "uint256",
              "name": "claimedPoints",
              "type": "uint256"
            },
            {
              "internalType": "uint256",
              "name": "unClaimedPoints",
              "type": "uint256"
            }
          ],
          "internalType": "struct IStudio.Studio",
          "name": "",
          "type": "tuple"
        }
      ],
      "stateMutability": "view",
      "type": "function"
    },
    {
      "inputs": [
        {
          "internalType": "address",
          "name": "studio",
          "type": "address"
        }
      ],
      "name": "hasStudio",
      "outputs": [
        {
          "internalType": "bool",
          "name": "",
          "type": "bool"
        }
      ],
      "stateMutability": "view",
      "type": "function"
    },
    {
      "inputs": [
        {
          "internalType": "string",
          "name": "URI",
          "type": "string"
        }
      ],
      "name": "initContent",
      "outputs": [
        {
          "internalType": "uint256",
          "name": "",
          "type": "uint256"
        }
      ],
      "stateMutability": "nonpayable",
      "type": "function"
    },
    {
      "inputs": [],
      "name": "intStudio",
      "outputs": [],
      "stateMutability": "payable",
      "type": "function"
    },
    {
      "inputs": [
        {
          "internalType": "address",
          "name": "studio",
          "type": "address"
        }
      ],
      "name": "isBlacklist",
      "outputs": [
        {
          "internalType": "bool",
          "name": "",
          "type": "bool"
        }
      ],
      "stateMutability": "view",
      "type": "function"
    },
    {
      "inputs": [],
      "name": "owner",
      "outputs": [
        {
          "internalType": "address",
          "name": "",
          "type": "address"
        }
      ],
      "stateMutability": "view",
      "type": "function"
    },
    {
      "inputs": [
        {
          "internalType": "address",
          "name": "studio",
          "type": "address"
        }
      ],
      "name": "removeFromBlacklist",
      "outputs": [],
      "stateMutability": "nonpayable",
      "type": "function"
    },
    {
      "inputs": [],
      "name": "renounceOwnership",
      "outputs": [],
      "stateMutability": "nonpayable",
      "type": "function"
    },
    {
      "inputs": [
        {
          "internalType": "uint256",
          "name": "content",
          "type": "uint256"
        },
        {
          "internalType": "uint256",
          "name": "points",
          "type": "uint256"
        }
      ],
      "name": "tip",
      "outputs": [],
      "stateMutability": "nonpayable",
      "type": "function"
    },
    {
      "inputs": [
        {
          "internalType": "address",
          "name": "newOwner",
          "type": "address"
        }
      ],
      "name": "transferOwnership",
      "outputs": [],
      "stateMutability": "nonpayable",
      "type": "function"
    },
    {
      "inputs": [
        {
          "internalType": "uint256",
          "name": "newFees",
          "type": "uint256"
        }
      ],
      "name": "updateFees",
      "outputs": [],
      "stateMutability": "nonpayable",
      "type": "function"
    },
    {
      "inputs": [
        {
          "internalType": "address",
          "name": "newSafeContent",
          "type": "address"
        }
      ],
      "name": "updateSafeContent",
      "outputs": [],
      "stateMutability": "nonpayable",
      "type": "function"
    }
  ],
  "bytecode": "0x6080346100f757601f610caf38819003918201601f19168301916001600160401b038311848410176100fc5780849260409485528339810103126100f757610052602061004b83610112565b9201610112565b33156100e15760008054336001600160a01b0319821681178355604051949290916001600160a01b0316907f8be0079c531659141344cd1fd0a4f28419497f9722a3daafe3b4186f6b6457e09080a36000600455600580546001600160a01b039283166001600160a01b03199182161790915560068054939092169216919091179055610b8890816101278239f35b631e4fbdf760e01b600052600060045260246000fd5b600080fd5b634e487b7160e01b600052604160045260246000fd5b51906001600160a01b03821682036100f75756fe608080604052600436101561001357600080fd5b60003560e01c90816301a3f2ad146109d857508063333e99db14610996578063379607f51461080257806344337ea1146107ba578063537df3b614610775578063715018a61461070f578063726bb1c91461069e57806374d6041c1461057757806378dacee114610556578063883def39146105065780638da5cb5b146104df578063dac5e82914610317578063e2a6d33f146101705763f2fde38b146100b957600080fd5b3461016b57602036600319011261016b576004356001600160a01b03811680910361016b576100e6610b10565b801561013c576001600160a01b036000548273ffffffffffffffffffffffffffffffffffffffff19821617600055167f8be0079c531659141344cd1fd0a4f28419497f9722a3daafe3b4186f6b6457e0600080a3005b7f1e4fbdf700000000000000000000000000000000000000000000000000000000600052600060045260246000fd5b600080fd5b3461016b57604036600319011261016b57600435602435600060206001600160a01b03600554166064604051809481937f23b872dd0000000000000000000000000000000000000000000000000000000083523360048401523060248401528760448401525af180156102de576102ea575b50602460206001600160a01b0360065416604051928380927f6352211e0000000000000000000000000000000000000000000000000000000082528760048301525afa9081156102de57600091610294575b7f1d57d86da20f2c8bbce7f4febff817af1f887fd8bd96e07a8760e4248b5d233f606085856001600160a01b0386166000526001602052600160406000200161027e828254610aeb565b90556040519182523360208301526040820152a1005b6020813d6020116102d6575b816102ad60209383610a33565b810103126102d25751906001600160a01b03821682036102cf57506060610234565b80fd5b5080fd5b3d91506102a0565b6040513d6000823e3d90fd5b61030b9060203d602011610310575b6103038183610a33565b810190610af8565b6101e2565b503d6102f9565b3461016b57602036600319011261016b5760043567ffffffffffffffff811161016b573660238201121561016b57806004013567ffffffffffffffff81116104c95760405191610371601f8301601f191660200184610a33565b818352366024838301011161016b578160009260246020930183860137830101523360005260026020526103ac60ff60406000205416610a55565b3360005260036020526103c760ff6040600020541615610aa0565b6001600160a01b036006541660405180927fd0def5210000000000000000000000000000000000000000000000000000000082523360048301526040602483015280519081604484015260005b8281106104b15750509181600060648286838360209984010152601f801991011681010301925af180156102de5760009061047e575b6020907f4f9725e047d6389c56bdbbdb7b04494a350102258d682eb6159a3d87dd4dd4a082604051838152a1604051908152f35b506020813d6020116104a9575b8161049860209383610a33565b8101031261016b576020905161044a565b3d915061048b565b60208282018101516064888401015286945001610414565b634e487b7160e01b600052604160045260246000fd5b3461016b57600036600319011261016b5760206001600160a01b0360005416604051908152f35b3461016b57602036600319011261016b576004356001600160a01b03811680910361016b57610533610b10565b73ffffffffffffffffffffffffffffffffffffffff196006541617600655600080f35b3461016b57602036600319011261016b5761056f610b10565b600480359055005b600036600319011261016b5733600052600260205260ff6040600020541661065a576004543410610616576040516105ae81610a17565b60008152600160208201600081523360005281602052604060002092518355519101553360005260026020526040600020600160ff198254161790557f8af5490cdc84752aa6a89a230705c7e574c13e379f6c66fb5abd117196b97c3a6020604051338152a1005b606460405162461bcd60e51b815260206004820152601160248201527f494e53554646494349454e5420464545530000000000000000000000000000006044820152fd5b606460405162461bcd60e51b815260206004820152601260248201527f414c5245414459204841532053545544494f00000000000000000000000000006044820152fd5b3461016b57602036600319011261016b576004356001600160a01b03811680910361016b57600060206040516106d381610a17565b8281520152600052600160205260408060002081516106f181610a17565b60206001835493848452015491019081528251918252516020820152f35b3461016b57600036600319011261016b57610728610b10565b60006001600160a01b03815473ffffffffffffffffffffffffffffffffffffffff1981168355167f8be0079c531659141344cd1fd0a4f28419497f9722a3daafe3b4186f6b6457e08280a3005b3461016b57602036600319011261016b576004356001600160a01b03811680910361016b576107a2610b10565b6000908152600360205260409020805460ff19169055005b3461016b57602036600319011261016b576004356001600160a01b03811680910361016b576107e7610b10565b6000908152600360205260409020805460ff19166001179055005b3461016b57602036600319011261016b5760043533600052600260205261083060ff60406000205416610a55565b33600052600360205261084b60ff6040600020541615610aa0565b3360005260016020526040600020600181018054908382106109525783820391821161093c575561087d828254610aeb565b90556005546040517fa9059cbb000000000000000000000000000000000000000000000000000000008152336004820152602481018390529190602090839060449082906000906001600160a01b03165af19081156102de577fba953728785de35be3827ee7a7a7867a8472947562602939440e6c0bdbf4725e9261091a9261091f575b5060408051338152602081019290925290918291820190565b0390a1005b6109379060203d602011610310576103038183610a33565b610901565b634e487b7160e01b600052601160045260246000fd5b606460405162461bcd60e51b815260206004820152601360248201527f494e53554646494349454e5420504f494e5453000000000000000000000000006044820152fd5b3461016b57602036600319011261016b576004356001600160a01b03811680910361016b576000526003602052602060ff604060002054166040519015158152f35b3461016b57602036600319011261016b57600435906001600160a01b03821680920361016b576020916000526002825260ff6040600020541615158152f35b6040810190811067ffffffffffffffff8211176104c957604052565b90601f8019910116810190811067ffffffffffffffff8211176104c957604052565b15610a5c57565b606460405162461bcd60e51b815260206004820152600d60248201527f4f50454e20412053545544494f000000000000000000000000000000000000006044820152fd5b15610aa757565b606460405162461bcd60e51b815260206004820152601560248201527f53545544494f20495320424c41434b4c495354454400000000000000000000006044820152fd5b9190820180921161093c57565b9081602091031261016b5751801515810361016b5790565b6001600160a01b03600054163303610b2457565b7f118cdaa7000000000000000000000000000000000000000000000000000000006000523360045260246000fdfea26469706673582212201d0c85008c2e4bce738ab68b50fe68b1b28dcaa5c8bdddf6de5eaa7f7764121b64736f6c634300081c0033",
  "linkReferences": {},
  "deployedLinkReferences": {}
}