{
  "_format": "hh-sol-artifact-1",
  "contractName": "SafePoints",
  "sourceName": "contracts/assets/SafePoints.sol",
  "abi": [
    {
      "inputs": [],
      "stateMutability": "nonpayable",
      "type": "constructor"
    },
    {
      "inputs": [
        {
          "internalType": "address",
          "name": "spender",
          "type": "address"
        },
        {
          "internalType": "uint256",
          "name": "allowance",
          "type": "uint256"
        },
        {
          "internalType": "uint256",
          "name": "needed",
          "type": "uint256"
        }
      ],
      "name": "ERC20InsufficientAllowance",
      "type": "error"
    },
    {
      "inputs": [
        {
          "internalType": "address",
          "name": "sender",
          "type": "address"
        },
        {
          "internalType": "uint256",
          "name": "balance",
          "type": "uint256"
        },
        {
          "internalType": "uint256",
          "name": "needed",
          "type": "uint256"
        }
      ],
      "name": "ERC20InsufficientBalance",
      "type": "error"
    },
    {
      "inputs": [
        {
          "internalType": "address",
          "name": "approver",
          "type": "address"
        }
      ],
      "name": "ERC20InvalidApprover",
      "type": "error"
    },
    {
      "inputs": [
        {
          "internalType": "address",
          "name": "receiver",
          "type": "address"
        }
      ],
      "name": "ERC20InvalidReceiver",
      "type": "error"
    },
    {
      "inputs": [
        {
          "internalType": "address",
          "name": "sender",
          "type": "address"
        }
      ],
      "name": "ERC20InvalidSender",
      "type": "error"
    },
    {
      "inputs": [
        {
          "internalType": "address",
          "name": "spender",
          "type": "address"
        }
      ],
      "name": "ERC20InvalidSpender",
      "type": "error"
    },
    {
      "anonymous": false,
      "inputs": [
        {
          "indexed": true,
          "internalType": "address",
          "name": "owner",
          "type": "address"
        },
        {
          "indexed": true,
          "internalType": "address",
          "name": "spender",
          "type": "address"
        },
        {
          "indexed": false,
          "internalType": "uint256",
          "name": "value",
          "type": "uint256"
        }
      ],
      "name": "Approval",
      "type": "event"
    },
    {
      "anonymous": false,
      "inputs": [
        {
          "indexed": true,
          "internalType": "address",
          "name": "from",
          "type": "address"
        },
        {
          "indexed": true,
          "internalType": "address",
          "name": "to",
          "type": "address"
        },
        {
          "indexed": false,
          "internalType": "uint256",
          "name": "value",
          "type": "uint256"
        }
      ],
      "name": "Transfer",
      "type": "event"
    },
    {
      "inputs": [
        {
          "internalType": "address",
          "name": "owner",
          "type": "address"
        },
        {
          "internalType": "address",
          "name": "spender",
          "type": "address"
        }
      ],
      "name": "allowance",
      "outputs": [
        {
          "internalType": "uint256",
          "name": "",
          "type": "uint256"
        }
      ],
      "stateMutability": "view",
      "type": "function"
    },
    {
      "inputs": [
        {
          "internalType": "address",
          "name": "spender",
          "type": "address"
        },
        {
          "internalType": "uint256",
          "name": "value",
          "type": "uint256"
        }
      ],
      "name": "approve",
      "outputs": [
        {
          "internalType": "bool",
          "name": "",
          "type": "bool"
        }
      ],
      "stateMutability": "nonpayable",
      "type": "function"
    },
    {
      "inputs": [
        {
          "internalType": "address",
          "name": "account",
          "type": "address"
        }
      ],
      "name": "balanceOf",
      "outputs": [
        {
          "internalType": "uint256",
          "name": "",
          "type": "uint256"
        }
      ],
      "stateMutability": "view",
      "type": "function"
    },
    {
      "inputs": [],
      "name": "decimals",
      "outputs": [
        {
          "internalType": "uint8",
          "name": "",
          "type": "uint8"
        }
      ],
      "stateMutability": "view",
      "type": "function"
    },
    {
      "inputs": [],
      "name": "mint",
      "outputs": [],
      "stateMutability": "payable",
      "type": "function"
    },
    {
      "inputs": [],
      "name": "name",
      "outputs": [
        {
          "internalType": "string",
          "name": "",
          "type": "string"
        }
      ],
      "stateMutability": "view",
      "type": "function"
    },
    {
      "inputs": [],
      "name": "symbol",
      "outputs": [
        {
          "internalType": "string",
          "name": "",
          "type": "string"
        }
      ],
      "stateMutability": "view",
      "type": "function"
    },
    {
      "inputs": [],
      "name": "totalSupply",
      "outputs": [
        {
          "internalType": "uint256",
          "name": "",
          "type": "uint256"
        }
      ],
      "stateMutability": "view",
      "type": "function"
    },
    {
      "inputs": [
        {
          "internalType": "address",
          "name": "to",
          "type": "address"
        },
        {
          "internalType": "uint256",
          "name": "value",
          "type": "uint256"
        }
      ],
      "name": "transfer",
      "outputs": [
        {
          "internalType": "bool",
          "name": "",
          "type": "bool"
        }
      ],
      "stateMutability": "nonpayable",
      "type": "function"
    },
    {
      "inputs": [
        {
          "internalType": "address",
          "name": "from",
          "type": "address"
        },
        {
          "internalType": "address",
          "name": "to",
          "type": "address"
        },
        {
          "internalType": "uint256",
          "name": "value",
          "type": "uint256"
        }
      ],
      "name": "transferFrom",
      "outputs": [
        {
          "internalType": "bool",
          "name": "",
          "type": "bool"
        }
      ],
      "stateMutability": "nonpayable",
      "type": "function"
    }
  ],
  "bytecode": "0x6080604052346103ce57604080519081016001600160401b038111828210176102d9576040908152600a82526953616665506f696e747360b01b602083015280519081016001600160401b038111828210176102d95760405260048152635341464560e01b602082015281516001600160401b0381116102d957600354600181811c911680156103c4575b60208210146102b957601f811161035f575b50602092601f82116001146102fa57928192936000926102ef575b50508160011b916000199060031b1c1916176003555b80516001600160401b0381116102d957600454600181811c911680156102cf575b60208210146102b957601f8111610254575b50602091601f82116001146101f0579181926000926101e5575b50508160011b916000199060031b1c1916176004555b33156101cf576002546b033b2e3c9fd0803ce800000081018091116101b957600255600033815280602052604081206b033b2e3c9fd0803ce80000008154019055604051906b033b2e3c9fd0803ce800000082527fddf252ad1be2c89b69c2b068fc378daa952ba7f163c4a11628f55a4df523b3ef60203393a36040516107fd90816103d48239f35b634e487b7160e01b600052601160045260246000fd5b63ec442f0560e01b600052600060045260246000fd5b01519050388061011a565b601f198216926004600052806000209160005b85811061023c57508360019510610223575b505050811b01600455610130565b015160001960f88460031b161c19169055388080610215565b91926020600181928685015181550194019201610203565b60046000527f8a35acfbc15ff81a39ae7d344fd709f28e8600b4aa8c65c6b64bfe7fe36bd19b601f830160051c810191602084106102af575b601f0160051c01905b8181106102a35750610100565b60008155600101610296565b909150819061028d565b634e487b7160e01b600052602260045260246000fd5b90607f16906100ee565b634e487b7160e01b600052604160045260246000fd5b0151905038806100b7565b601f198216936003600052806000209160005b868110610347575083600195961061032e575b505050811b016003556100cd565b015160001960f88460031b161c19169055388080610320565b9192602060018192868501518155019401920161030d565b60036000527fc2575a0e9e593c00f959f8c92f12db2869c3395a3b0502d05e2516446f71f85b601f830160051c810191602084106103ba575b601f0160051c01905b8181106103ae575061009c565b600081556001016103a1565b9091508190610398565b90607f169061008a565b600080fdfe608080604052600436101561001357600080fd5b60003560e01c90816306fdde031461059e57508063095ea7b3146105185780631249c58b146103f157806318160ddd146103d357806323b872dd14610292578063313ce5671461027657806370a082311461023c57806395d89b411461011b578063a9059cbb146100ea5763dd62ed3e1461008d57600080fd5b346100e55760403660031901126100e5576100a66106ba565b6001600160a01b036100b66106d0565b911660005260016020526001600160a01b03604060002091166000526020526020604060002054604051908152f35b600080fd5b346100e55760403660031901126100e5576101106101066106ba565b60243590336106e6565b602060405160018152f35b346100e55760003660031901126100e55760405160006004548060011c90600181168015610232575b60208310811461021e5782855290811561020257506001146101ab575b50819003601f01601f191681019067ffffffffffffffff8211818310176101955761019182918260405282610671565b0390f35b634e487b7160e01b600052604160045260246000fd5b905060046000527f8a35acfbc15ff81a39ae7d344fd709f28e8600b4aa8c65c6b64bfe7fe36bd19b6000905b8282106101ec57506020915082010182610161565b60018160209254838588010152019101906101d7565b90506020925060ff191682840152151560051b82010182610161565b602484634e487b7160e01b81526022600452fd5b91607f1691610144565b346100e55760203660031901126100e5576001600160a01b0361025d6106ba565b1660005260006020526020604060002054604051908152f35b346100e55760003660031901126100e557602060405160128152f35b346100e55760603660031901126100e5576102ab6106ba565b6102b36106d0565b604435906001600160a01b0383169283600052600160205260406000206001600160a01b03331660005260205260406000205460001981036102fb575b5061011093506106e6565b83811061039d57841561036e57331561033f5761011094600052600160205260406000206001600160a01b03331660005260205283604060002091039055846102f0565b7f94280d6200000000000000000000000000000000000000000000000000000000600052600060045260246000fd5b7fe602df0500000000000000000000000000000000000000000000000000000000600052600060045260246000fd5b83907ffb8f41b2000000000000000000000000000000000000000000000000000000006000523360045260245260445260646000fd5b346100e55760003660031901126100e5576020600254604051908152f35b60003660031901126100e55734156104ba576511a1fdf37e0034023481046511a1fdf37e000361047557331561048b57600254818101809111610475576002556000903382528160205260408220818154019055604051908152817fddf252ad1be2c89b69c2b068fc378daa952ba7f163c4a11628f55a4df523b3ef60203393a380f35b634e487b7160e01b600052601160045260246000fd5b7fec442f0500000000000000000000000000000000000000000000000000000000600052600060045260246000fd5b60646040517f08c379a000000000000000000000000000000000000000000000000000000000815260206004820152600f60248201527f4e4f4e205a45524f20414d4f554e5400000000000000000000000000000000006044820152fd5b346100e55760403660031901126100e5576105316106ba565b60243590331561036e576001600160a01b031690811561033f57336000526001602052604060002082600052602052806040600020556040519081527f8c5be1e5ebec7d5bd14f71427d1e84f3dd0314c0f7b2291e5b200ac8c7c3b92560203392a3602060405160018152f35b346100e55760003660031901126100e55760006003548060011c90600181168015610667575b60208310811461021e5782855290811561020257506001146106105750819003601f01601f191681019067ffffffffffffffff8211818310176101955761019182918260405282610671565b905060036000527fc2575a0e9e593c00f959f8c92f12db2869c3395a3b0502d05e2516446f71f85b6000905b82821061065157506020915082010182610161565b600181602092548385880101520191019061063c565b91607f16916105c4565b91909160208152825180602083015260005b8181106106a4575060409293506000838284010152601f8019910116010190565b8060208092870101516040828601015201610683565b600435906001600160a01b03821682036100e557565b602435906001600160a01b03821682036100e557565b6001600160a01b0316908115610798576001600160a01b031691821561048b5760008281528060205260408120548281106107655791604082827fddf252ad1be2c89b69c2b068fc378daa952ba7f163c4a11628f55a4df523b3ef958760209652828652038282205586815280845220818154019055604051908152a3565b6064937fe450d38c0000000000000000000000000000000000000000000000000000000083949352600452602452604452fd5b7f96c6fd1e00000000000000000000000000000000000000000000000000000000600052600060045260246000fdfea2646970667358221220b56fb5f9162fa05a7a601723d930b630142fc66a5cfe2d2f2941b20592e807fc64736f6c634300081c0033",
  "linkReferences": {},
  "deployedLinkReferences": {}
}